{
  "_format": "hh-sol-artifact-1",
  "contractName": "FileTokenUpgradeableV2",
  "sourceName": "contracts/FileTokenUpgradeableV2.sol",
  "abi": [
    {
      "anonymous": false,
      "inputs": [
        {
          "indexed": false,
          "internalType": "address",
          "name": "_adminset",
          "type": "address"
        }
      ],
      "name": "Adminset",
      "type": "event"
    },
    {
      "anonymous": false,
      "inputs": [
        {
          "indexed": true,
          "internalType": "address",
          "name": "owner",
          "type": "address"
        },
        {
          "indexed": true,
          "internalType": "address",
          "name": "spender",
          "type": "address"
        },
        {
          "indexed": false,
          "internalType": "uint256",
          "name": "value",
          "type": "uint256"
        }
      ],
      "name": "Approval",
      "type": "event"
    },
    {
      "anonymous": false,
      "inputs": [
        {
          "indexed": false,
          "internalType": "uint8",
          "name": "version",
          "type": "uint8"
        }
      ],
      "name": "Initialized",
      "type": "event"
    },
    {
      "anonymous": false,
      "inputs": [
        {
          "indexed": true,
          "internalType": "address",
          "name": "previousOwner",
          "type": "address"
        },
        {
          "indexed": true,
          "internalType": "address",
          "name": "newOwner",
          "type": "address"
        }
      ],
      "name": "OwnershipTransferred",
      "type": "event"
    },
    {
      "anonymous": false,
      "inputs": [
        {
          "indexed": true,
          "internalType": "address",
          "name": "from",
          "type": "address"
        },
        {
          "indexed": true,
          "internalType": "address",
          "name": "to",
          "type": "address"
        },
        {
          "indexed": false,
          "internalType": "uint256",
          "name": "value",
          "type": "uint256"
        }
      ],
      "name": "Transfer",
      "type": "event"
    },
    {
      "anonymous": false,
      "inputs": [
        {
          "indexed": false,
          "internalType": "uint256",
          "name": "eventfilegridid",
          "type": "uint256"
        },
        {
          "indexed": false,
          "internalType": "address payable",
          "name": "_eventuseraddress",
          "type": "address"
        },
        {
          "indexed": false,
          "internalType": "string",
          "name": "_eventservicechosen",
          "type": "string"
        }
      ],
      "name": "connectogridevent",
      "type": "event"
    },
    {
      "anonymous": false,
      "inputs": [
        {
          "indexed": false,
          "internalType": "address payable",
          "name": "sender",
          "type": "address"
        },
        {
          "indexed": false,
          "internalType": "uint256",
          "name": "amount",
          "type": "uint256"
        }
      ],
      "name": "payfeeevent",
      "type": "event"
    },
    {
      "inputs": [
        {
          "internalType": "uint256",
          "name": "_filegridid",
          "type": "uint256"
        }
      ],
      "name": "_checkgridregistered",
      "outputs": [
        {
          "internalType": "bool",
          "name": "",
          "type": "bool"
        }
      ],
      "stateMutability": "nonpayable",
      "type": "function"
    },
    {
      "inputs": [
        {
          "internalType": "uint256",
          "name": "_filegridid",
          "type": "uint256"
        },
        {
          "internalType": "address",
          "name": "_useraddress",
          "type": "address"
        }
      ],
      "name": "_checkuseringrid",
      "outputs": [
        {
          "internalType": "bool",
          "name": "",
          "type": "bool"
        }
      ],
      "stateMutability": "nonpayable",
      "type": "function"
    },
    {
      "inputs": [
        {
          "internalType": "address payable",
          "name": "_useraddress",
          "type": "address"
        }
      ],
      "name": "_checkuserregistered",
      "outputs": [
        {
          "internalType": "bool",
          "name": "",
          "type": "bool"
        }
      ],
      "stateMutability": "nonpayable",
      "type": "function"
    },
    {
      "inputs": [
        {
          "internalType": "uint256",
          "name": "",
          "type": "uint256"
        }
      ],
      "name": "_filegrids",
      "outputs": [
        {
          "internalType": "uint256",
          "name": "gridid",
          "type": "uint256"
        },
        {
          "internalType": "uint256",
          "name": "gridcount",
          "type": "uint256"
        }
      ],
      "stateMutability": "view",
      "type": "function"
    },
    {
      "inputs": [
        {
          "internalType": "address",
          "name": "owner",
          "type": "address"
        },
        {
          "internalType": "address",
          "name": "spender",
          "type": "address"
        }
      ],
      "name": "allowance",
      "outputs": [
        {
          "internalType": "uint256",
          "name": "",
          "type": "uint256"
        }
      ],
      "stateMutability": "view",
      "type": "function"
    },
    {
      "inputs": [
        {
          "internalType": "address",
          "name": "spender",
          "type": "address"
        },
        {
          "internalType": "uint256",
          "name": "amount",
          "type": "uint256"
        }
      ],
      "name": "approve",
      "outputs": [
        {
          "internalType": "bool",
          "name": "",
          "type": "bool"
        }
      ],
      "stateMutability": "nonpayable",
      "type": "function"
    },
    {
      "inputs": [
        {
          "internalType": "address",
          "name": "account",
          "type": "address"
        }
      ],
      "name": "balanceOf",
      "outputs": [
        {
          "internalType": "uint256",
          "name": "",
          "type": "uint256"
        }
      ],
      "stateMutability": "view",
      "type": "function"
    },
    {
      "inputs": [
        {
          "internalType": "address",
          "name": "account",
          "type": "address"
        },
        {
          "internalType": "uint256",
          "name": "amount",
          "type": "uint256"
        }
      ],
      "name": "burn",
      "outputs": [
        {
          "internalType": "address",
          "name": "",
          "type": "address"
        },
        {
          "internalType": "uint256",
          "name": "",
          "type": "uint256"
        }
      ],
      "stateMutability": "nonpayable",
      "type": "function"
    },
    {
      "inputs": [
        {
          "internalType": "uint256",
          "name": "filegridid",
          "type": "uint256"
        },
        {
          "internalType": "address payable",
          "name": "_useraddress",
          "type": "address"
        },
        {
          "internalType": "uint256",
          "name": "_amount",
          "type": "uint256"
        }
      ],
      "name": "choosegridtostake",
      "outputs": [
        {
          "internalType": "uint256",
          "name": "",
          "type": "uint256"
        }
      ],
      "stateMutability": "nonpayable",
      "type": "function"
    },
    {
      "inputs": [],
      "name": "decimals",
      "outputs": [
        {
          "internalType": "uint8",
          "name": "",
          "type": "uint8"
        }
      ],
      "stateMutability": "view",
      "type": "function"
    },
    {
      "inputs": [
        {
          "internalType": "address",
          "name": "spender",
          "type": "address"
        },
        {
          "internalType": "uint256",
          "name": "subtractedValue",
          "type": "uint256"
        }
      ],
      "name": "decreaseAllowance",
      "outputs": [
        {
          "internalType": "bool",
          "name": "",
          "type": "bool"
        }
      ],
      "stateMutability": "nonpayable",
      "type": "function"
    },
    {
      "inputs": [
        {
          "internalType": "uint256",
          "name": "",
          "type": "uint256"
        }
      ],
      "name": "filegridregistered",
      "outputs": [
        {
          "internalType": "uint256",
          "name": "gridid",
          "type": "uint256"
        },
        {
          "internalType": "uint256",
          "name": "gridcount",
          "type": "uint256"
        }
      ],
      "stateMutability": "view",
      "type": "function"
    },
    {
      "inputs": [
        {
          "internalType": "address",
          "name": "spender",
          "type": "address"
        },
        {
          "internalType": "uint256",
          "name": "addedValue",
          "type": "uint256"
        }
      ],
      "name": "increaseAllowance",
      "outputs": [
        {
          "internalType": "bool",
          "name": "",
          "type": "bool"
        }
      ],
      "stateMutability": "nonpayable",
      "type": "function"
    },
    {
      "inputs": [
        {
          "internalType": "address",
          "name": "account",
          "type": "address"
        },
        {
          "internalType": "uint256",
          "name": "amount",
          "type": "uint256"
        }
      ],
      "name": "mint",
      "outputs": [
        {
          "internalType": "address",
          "name": "",
          "type": "address"
        },
        {
          "internalType": "uint256",
          "name": "",
          "type": "uint256"
        }
      ],
      "stateMutability": "nonpayable",
      "type": "function"
    },
    {
      "inputs": [],
      "name": "name",
      "outputs": [
        {
          "internalType": "string",
          "name": "",
          "type": "string"
        }
      ],
      "stateMutability": "view",
      "type": "function"
    },
    {
      "inputs": [],
      "name": "owner",
      "outputs": [
        {
          "internalType": "address",
          "name": "",
          "type": "address"
        }
      ],
      "stateMutability": "view",
      "type": "function"
    },
    {
      "inputs": [
        {
          "internalType": "address",
          "name": "__owner",
          "type": "address"
        }
      ],
      "name": "ownerpick",
      "outputs": [],
      "stateMutability": "nonpayable",
      "type": "function"
    },
    {
      "inputs": [
        {
          "internalType": "address payable",
          "name": "sender",
          "type": "address"
        },
        {
          "internalType": "uint256",
          "name": "amount",
          "type": "uint256"
        }
      ],
      "name": "payfee",
      "outputs": [
        {
          "internalType": "bool",
          "name": "",
          "type": "bool"
        },
        {
          "internalType": "bytes",
          "name": "",
          "type": "bytes"
        }
      ],
      "stateMutability": "payable",
      "type": "function"
    },
    {
      "inputs": [
        {
          "internalType": "string",
          "name": "_username",
          "type": "string"
        },
        {
          "internalType": "address payable",
          "name": "_useraddress",
          "type": "address"
        }
      ],
      "name": "registerfileusername",
      "outputs": [
        {
          "internalType": "string",
          "name": "",
          "type": "string"
        },
        {
          "internalType": "address",
          "name": "",
          "type": "address"
        }
      ],
      "stateMutability": "nonpayable",
      "type": "function"
    },
    {
      "inputs": [
        {
          "internalType": "uint256",
          "name": "_filegridid",
          "type": "uint256"
        }
      ],
      "name": "registergrid",
      "outputs": [
        {
          "internalType": "uint256",
          "name": "",
          "type": "uint256"
        }
      ],
      "stateMutability": "nonpayable",
      "type": "function"
    },
    {
      "inputs": [],
      "name": "renounceOwnership",
      "outputs": [],
      "stateMutability": "nonpayable",
      "type": "function"
    },
    {
      "inputs": [],
      "name": "selectBasic",
      "outputs": [
        {
          "internalType": "bool",
          "name": "",
          "type": "bool"
        }
      ],
      "stateMutability": "nonpayable",
      "type": "function"
    },
    {
      "inputs": [],
      "name": "selectHybrid",
      "outputs": [
        {
          "internalType": "bool",
          "name": "",
          "type": "bool"
        }
      ],
      "stateMutability": "nonpayable",
      "type": "function"
    },
    {
      "inputs": [],
      "name": "selectPremium",
      "outputs": [
        {
          "internalType": "bool",
          "name": "",
          "type": "bool"
        }
      ],
      "stateMutability": "nonpayable",
      "type": "function"
    },
    {
      "inputs": [],
      "name": "stakeprevrewards",
      "outputs": [
        {
          "internalType": "bool",
          "name": "",
          "type": "bool"
        }
      ],
      "stateMutability": "nonpayable",
      "type": "function"
    },
    {
      "inputs": [],
      "name": "symbol",
      "outputs": [
        {
          "internalType": "string",
          "name": "",
          "type": "string"
        }
      ],
      "stateMutability": "view",
      "type": "function"
    },
    {
      "inputs": [],
      "name": "totalSupply",
      "outputs": [
        {
          "internalType": "uint256",
          "name": "",
          "type": "uint256"
        }
      ],
      "stateMutability": "view",
      "type": "function"
    },
    {
      "inputs": [
        {
          "internalType": "address",
          "name": "recipient",
          "type": "address"
        },
        {
          "internalType": "uint256",
          "name": "amount",
          "type": "uint256"
        }
      ],
      "name": "transfer",
      "outputs": [
        {
          "internalType": "bool",
          "name": "",
          "type": "bool"
        }
      ],
      "stateMutability": "nonpayable",
      "type": "function"
    },
    {
      "inputs": [
        {
          "internalType": "address",
          "name": "sender",
          "type": "address"
        },
        {
          "internalType": "address",
          "name": "recipient",
          "type": "address"
        },
        {
          "internalType": "uint256",
          "name": "amount",
          "type": "uint256"
        }
      ],
      "name": "transferFrom",
      "outputs": [
        {
          "internalType": "bool",
          "name": "",
          "type": "bool"
        }
      ],
      "stateMutability": "nonpayable",
      "type": "function"
    },
    {
      "inputs": [
        {
          "internalType": "address",
          "name": "newOwner",
          "type": "address"
        }
      ],
      "name": "transferOwnership",
      "outputs": [],
      "stateMutability": "nonpayable",
      "type": "function"
    },
    {
      "inputs": [
        {
          "internalType": "address",
          "name": "",
          "type": "address"
        }
      ],
      "name": "userlist",
      "outputs": [
        {
          "internalType": "address payable",
          "name": "useraddress",
          "type": "address"
        },
        {
          "internalType": "string",
          "name": "username",
          "type": "string"
        },
        {
          "internalType": "uint256",
          "name": "userpoint",
          "type": "uint256"
        },
        {
          "internalType": "uint256",
          "name": "userbalance",
          "type": "uint256"
        }
      ],
      "stateMutability": "view",
      "type": "function"
    },
    {
      "inputs": [
        {
          "internalType": "uint256",
          "name": "",
          "type": "uint256"
        }
      ],
      "name": "usersingridinfo",
      "outputs": [
        {
          "internalType": "uint256",
          "name": "filegridid",
          "type": "uint256"
        },
        {
          "internalType": "address payable",
          "name": "usersingridaddress",
          "type": "address"
        },
        {
          "internalType": "bool",
          "name": "gridfunctioning",
          "type": "bool"
        },
        {
          "internalType": "uint256",
          "name": "gridreputationscore",
          "type": "uint256"
        },
        {
          "internalType": "uint256",
          "name": "griduserscount",
          "type": "uint256"
        },
        {
          "internalType": "uint256",
          "name": "duration",
          "type": "uint256"
        }
      ],
      "stateMutability": "view",
      "type": "function"
    },
    {
      "inputs": [
        {
          "internalType": "uint256",
          "name": "",
          "type": "uint256"
        }
      ],
      "name": "usersingridlist",
      "outputs": [
        {
          "internalType": "uint256",
          "name": "filegridid",
          "type": "uint256"
        },
        {
          "internalType": "address payable",
          "name": "usersingridaddress",
          "type": "address"
        },
        {
          "internalType": "bool",
          "name": "gridfunctioning",
          "type": "bool"
        },
        {
          "internalType": "uint256",
          "name": "gridreputationscore",
          "type": "uint256"
        },
        {
          "internalType": "uint256",
          "name": "griduserscount",
          "type": "uint256"
        },
        {
          "internalType": "uint256",
          "name": "duration",
          "type": "uint256"
        }
      ],
      "stateMutability": "view",
      "type": "function"
    },
    {
      "inputs": [
        {
          "internalType": "uint256",
          "name": "",
          "type": "uint256"
        }
      ],
      "name": "usersregistered",
      "outputs": [
        {
          "internalType": "address payable",
          "name": "useraddress",
          "type": "address"
        },
        {
          "internalType": "string",
          "name": "username",
          "type": "string"
        },
        {
          "internalType": "uint256",
          "name": "userpoint",
          "type": "uint256"
        },
        {
          "internalType": "uint256",
          "name": "userbalance",
          "type": "uint256"
        }
      ],
      "stateMutability": "view",
      "type": "function"
    }
  ],
  "bytecode": "0x608060405234801561001057600080fd5b506140eb806100206000396000f3fe6080604052600436106101f95760003560e01c80638e0c62e31161010d578063c444e19e116100a0578063f1f990851161006f578063f1f990851461084a578063f2fde38b14610875578063f3a3afd81461089e578063f5b6580c146108db578063f983fc7314610906576101f9565b8063c444e19e14610751578063c7a3894c14610791578063dbd1e664146107cf578063dd62ed3e1461080d576101f9565b8063a457c2d7116100dc578063a457c2d71461065c578063a9059cbb14610699578063b1df8ec5146106d6578063b63cae5514610713576101f9565b80638e0c62e31461058557806395d89b41146105b65780639dc29fac146105e1578063a16c0c4f1461061f576101f9565b8063395093511161019057806370a082311161015f57806370a0823114610489578063712f626b146104c6578063715018a6146105035780638b1c47fc1461051a5780638da5cb5b1461055a576101f9565b806339509351146103a157806340c10f19146103de57806353a729841461041c5780636c03e7071461045e576101f9565b806318160ddd116101cc57806318160ddd146102cc57806323b872dd146102f75780632473976f14610334578063313ce56714610376576101f9565b8063034018e6146101fe57806306fdde031461023b578063095ea7b3146102665780630f44b4c9146102a3575b600080fd5b34801561020a57600080fd5b506102256004803603810190610220919061306d565b610931565b604051610232919061351c565b60405180910390f35b34801561024757600080fd5b506102506109e1565b60405161025d9190613567565b60405180910390f35b34801561027257600080fd5b5061028d60048036038101906102889190612fb4565b610a73565b60405161029a919061351c565b60405180910390f35b3480156102af57600080fd5b506102ca60048036038101906102c59190612e9b565b610a91565b005b3480156102d857600080fd5b506102e1610f40565b6040516102ee91906137f9565b60405180910390f35b34801561030357600080fd5b5061031e60048036038101906103199190612f65565b610f4a565b60405161032b919061351c565b60405180910390f35b34801561034057600080fd5b5061035b60048036038101906103569190613044565b611023565b60405161036d96959493929190613814565b60405180910390f35b34801561038257600080fd5b5061038b61108c565b604051610398919061389e565b60405180910390f35b3480156103ad57600080fd5b506103c860048036038101906103c39190612fb4565b611095565b6040516103d5919061351c565b60405180910390f35b3480156103ea57600080fd5b5061040560048036038101906104009190612fb4565b6110cc565b6040516104139291906134f3565b60405180910390f35b34801561042857600080fd5b50610443600480360381019061043e9190613044565b6110e6565b60405161045596959493929190613814565b60405180910390f35b34801561046a57600080fd5b5061047361115f565b604051610480919061351c565b60405180910390f35b34801561049557600080fd5b506104b060048036038101906104ab9190612e9b565b6111d9565b6040516104bd91906137f9565b60405180910390f35b3480156104d257600080fd5b506104ed60048036038101906104e89190612ec4565b611222565b6040516104fa919061351c565b60405180910390f35b34801561050f57600080fd5b506105186112c4565b005b34801561052657600080fd5b50610541600480360381019061053c9190613044565b6112d8565b604051610551949392919061347e565b60405180910390f35b34801561056657600080fd5b5061056f6113c0565b60405161057c9190613463565b60405180910390f35b61059f600480360381019061059a9190612eed565b6113ea565b6040516105ad929190613537565b60405180910390f35b3480156105c257600080fd5b506105cb6115ec565b6040516105d89190613567565b60405180910390f35b3480156105ed57600080fd5b5061060860048036038101906106039190612fb4565b61167e565b6040516106169291906134f3565b60405180910390f35b34801561062b57600080fd5b5061064660048036038101906106419190613044565b611698565b604051610653919061351c565b60405180910390f35b34801561066857600080fd5b50610683600480360381019061067e9190612fb4565b6116fb565b604051610690919061351c565b60405180910390f35b3480156106a557600080fd5b506106c060048036038101906106bb9190612fb4565b611772565b6040516106cd919061351c565b60405180910390f35b3480156106e257600080fd5b506106fd60048036038101906106f89190613044565b611790565b60405161070a91906137f9565b60405180910390f35b34801561071f57600080fd5b5061073a60048036038101906107359190612ff0565b611922565b604051610748929190613589565b60405180910390f35b34801561075d57600080fd5b5061077860048036038101906107739190612e9b565b611e28565b604051610788949392919061347e565b60405180910390f35b34801561079d57600080fd5b506107b860048036038101906107b39190613044565b611f00565b6040516107c6929190613875565b60405180910390f35b3480156107db57600080fd5b506107f660048036038101906107f19190613044565b611f24565b604051610804929190613875565b60405180910390f35b34801561081957600080fd5b50610834600480360381019061082f9190612f29565b611f58565b60405161084191906137f9565b60405180910390f35b34801561085657600080fd5b5061085f611fdf565b60405161086c919061351c565b60405180910390f35b34801561088157600080fd5b5061089c60048036038101906108979190612e9b565b612059565b005b3480156108aa57600080fd5b506108c560048036038101906108c091906130a9565b6120dd565b6040516108d291906137f9565b60405180910390f35b3480156108e757600080fd5b506108f06121eb565b6040516108fd919061351c565b60405180910390f35b34801561091257600080fd5b5061091b612253565b604051610928919061351c565b60405180910390f35b60008173ffffffffffffffffffffffffffffffffffffffff1660b0600085815260200190815260200160002060010160009054906101000a900473ffffffffffffffffffffffffffffffffffffffff1673ffffffffffffffffffffffffffffffffffffffff16146109d7576040517f08c379a00000000000000000000000000000000000000000000000000000000081526004016109ce90613739565b60405180910390fd5b6001905092915050565b6060606880546109f090613a51565b80601f0160208091040260200160405190810160405280929190818152602001828054610a1c90613a51565b8015610a695780601f10610a3e57610100808354040283529160200191610a69565b820191906000526020600020905b815481529060010190602001808311610a4c57829003601f168201915b5050505050905090565b6000610a87610a806122cd565b84846122d5565b6001905092915050565b620f42406099819055506040518060400160405280600a81526020017f66696c65544f4b454e5300000000000000000000000000000000000000000000815250609a9080519060200190610ae6929190612cc4565b506040518060400160405280600381526020017f454e470000000000000000000000000000000000000000000000000000000000815250609b9080519060200190610b32929190612cc4565b50610b3b6113c0565b609c60006101000a81548173ffffffffffffffffffffffffffffffffffffffff021916908373ffffffffffffffffffffffffffffffffffffffff16021790555080609c60006101000a81548173ffffffffffffffffffffffffffffffffffffffff021916908373ffffffffffffffffffffffffffffffffffffffff160217905550610cda609a8054610bcc90613a51565b80601f0160208091040260200160405190810160405280929190818152602001828054610bf890613a51565b8015610c455780601f10610c1a57610100808354040283529160200191610c45565b820191906000526020600020905b815481529060010190602001808311610c2857829003601f168201915b5050505050609b8054610c5790613a51565b80601f0160208091040260200160405190810160405280929190818152602001828054610c8390613a51565b8015610cd05780601f10610ca557610100808354040283529160200191610cd0565b820191906000526020600020905b815481529060010190602001808311610cb357829003601f168201915b50505050506124a0565b6040518060400160405280600581526020017f6261736963000000000000000000000000000000000000000000000000000000815250609e9080519060200190610d25929190612cc4565b506040518060400160405280600781526020017f7072656d69756d00000000000000000000000000000000000000000000000000815250609f9080519060200190610d71929190612cc4565b506040518060400160405280600681526020017f6879627269640000000000000000000000000000000000000000000000000000815250609d9080519060200190610dbd929190612cc4565b50600060a060006101000a81548160ff021916908315150217905550600060a060016101000a81548160ff021916908315150217905550600060a060026101000a81548160ff021916908315150217905550600060a060036101000a81548160ff0219169083151502179055506040518060400160405280600581526020017f626173696300000000000000000000000000000000000000000000000000000081525060a19080519060200190610e75929190612cc4565b50600060a281905550600060a381905550600060a481905550606460a581905550600060a78190555060995460976000609c60009054906101000a900473ffffffffffffffffffffffffffffffffffffffff1673ffffffffffffffffffffffffffffffffffffffff1673ffffffffffffffffffffffffffffffffffffffff168152602001908152602001600020819055507f52454b5ea0ab0bb9d4c18ab97c144423198d68d685e9214879a694d252ee827981604051610f359190613463565b60405180910390a150565b6000609954905090565b6000610f578484846124fd565b61101884610f636122cd565b6110138560405180606001604052806028815260200161408e60289139609860008b73ffffffffffffffffffffffffffffffffffffffff1673ffffffffffffffffffffffffffffffffffffffff1681526020019081526020016000206000610fc96122cd565b73ffffffffffffffffffffffffffffffffffffffff1673ffffffffffffffffffffffffffffffffffffffff168152602001908152602001600020546127789092919063ffffffff16565b6122d5565b600190509392505050565b60b06020528060005260406000206000915090508060000154908060010160009054906101000a900473ffffffffffffffffffffffffffffffffffffffff16908060010160149054906101000a900460ff16908060020154908060030154908060040154905086565b60006012905090565b6000806110a06122cd565b90506110c18185856110b28589611f58565b6110bc9190613952565b6122d5565b600191505092915050565b6000806110d933846127cd565b8383915091509250929050565b60be81815481106110f657600080fd5b90600052602060002090600502016000915090508060000154908060010160009054906101000a900473ffffffffffffffffffffffffffffffffffffffff16908060010160149054906101000a900460ff16908060020154908060030154908060040154905086565b600060a060029054906101000a900460ff16156111a857600160a060026101000a81548160ff02191690831515021790555060a060029054906101000a900460ff1690506111d6565b600060a060026101000a81548160ff02191690831515021790555060a060029054906101000a900460ff1690505b90565b6000609760008373ffffffffffffffffffffffffffffffffffffffff1673ffffffffffffffffffffffffffffffffffffffff168152602001908152602001600020549050919050565b60008173ffffffffffffffffffffffffffffffffffffffff1660ac60008473ffffffffffffffffffffffffffffffffffffffff1673ffffffffffffffffffffffffffffffffffffffff16815260200190815260200160002060009054906101000a900473ffffffffffffffffffffffffffffffffffffffff1673ffffffffffffffffffffffffffffffffffffffff16146112bb57600080fd5b60019050919050565b6112cc612925565b6112d660006129a3565b565b60bd81815481106112e857600080fd5b90600052602060002090600402016000915090508060000160009054906101000a900473ffffffffffffffffffffffffffffffffffffffff169080600101805461133190613a51565b80601f016020809104026020016040519081016040528092919081815260200182805461135d90613a51565b80156113aa5780601f1061137f576101008083540402835291602001916113aa565b820191906000526020600020905b81548152906001019060200180831161138d57829003601f168201915b5050505050908060020154908060030154905084565b6000603360009054906101000a900473ffffffffffffffffffffffffffffffffffffffff16905090565b600060606113f66113c0565b609c60006101000a81548173ffffffffffffffffffffffffffffffffffffffff021916908373ffffffffffffffffffffffffffffffffffffffff160217905550600a83101561147a576040517f08c379a000000000000000000000000000000000000000000000000000000000815260040161147190613699565b60405180910390fd5b600080609c60009054906101000a900473ffffffffffffffffffffffffffffffffffffffff1673ffffffffffffffffffffffffffffffffffffffff1660a4546040516114c59061344e565b60006040518083038185875af1925050503d8060008114611502576040519150601f19603f3d011682016040523d82523d6000602084013e611507565b606091505b50915091508161154c576040517f08c379a0000000000000000000000000000000000000000000000000000000008152600401611543906135f9565b60405180910390fd5b600160ad60008873ffffffffffffffffffffffffffffffffffffffff1673ffffffffffffffffffffffffffffffffffffffff16815260200190815260200160002060006101000a81548160ff0219169083151502179055507f70e7309637dc544111da020df3d708d68ce358b19ab09961b25fe66b3feb155686866040516115d59291906134ca565b60405180910390a181819350935050509250929050565b6060606980546115fb90613a51565b80601f016020809104026020016040519081016040528092919081815260200182805461162790613a51565b80156116745780601f1061164957610100808354040283529160200191611674565b820191906000526020600020905b81548152906001019060200180831161165757829003601f168201915b5050505050905090565b60008061168b3384612a69565b8383915091509250929050565b60008160ae600084815260200190815260200160002060000154146116f2576040517f08c379a00000000000000000000000000000000000000000000000000000000081526004016116e990613799565b60405180910390fd5b60019050919050565b6000806117066122cd565b905060006117148286611f58565b905083811015611759576040517f08c379a0000000000000000000000000000000000000000000000000000000008152600401611750906137b9565b60405180910390fd5b61176682868684036122d5565b60019250505092915050565b600061178661177f6122cd565b84846124fd565b6001905092915050565b6000806000905080806117a290613ab4565b915050609c60009054906101000a900473ffffffffffffffffffffffffffffffffffffffff1673ffffffffffffffffffffffffffffffffffffffff163373ffffffffffffffffffffffffffffffffffffffff1614611835576040517f08c379a000000000000000000000000000000000000000000000000000000000815260040161182c90613659565b60405180910390fd5b60008360ab6000868152602001908152602001600020541461191a578360ab60008681526020019081526020016000208190555060405180604001604052808581526020018281525060b160008201518160000155602082015181600101559050508360ae6000868152602001908152602001600020600001819055508160ae60008681526020019081526020016000206001018190555060bc60b1908060018154018082558091505060019003906000526020600020906002020160009091909190915060008201548160000155600182015481600101555050839250505061191d565b50505b919050565b60606000609c60009054906101000a900473ffffffffffffffffffffffffffffffffffffffff1673ffffffffffffffffffffffffffffffffffffffff163373ffffffffffffffffffffffffffffffffffffffff16146119b6576040517f08c379a00000000000000000000000000000000000000000000000000000000081526004016119ad90613659565b60405180910390fd5b6001151560ad60008573ffffffffffffffffffffffffffffffffffffffff1673ffffffffffffffffffffffffffffffffffffffff16815260200190815260200160002060009054906101000a900460ff1615151415611e20576000611a1a846111d9565b90508373ffffffffffffffffffffffffffffffffffffffff1660ac60008673ffffffffffffffffffffffffffffffffffffffff1673ffffffffffffffffffffffffffffffffffffffff16815260200190815260200160002060009054906101000a900473ffffffffffffffffffffffffffffffffffffffff1673ffffffffffffffffffffffffffffffffffffffff1614611e1e578360ac60008673ffffffffffffffffffffffffffffffffffffffff1673ffffffffffffffffffffffffffffffffffffffff16815260200190815260200160002060006101000a81548173ffffffffffffffffffffffffffffffffffffffff021916908373ffffffffffffffffffffffffffffffffffffffff16021790555060405180608001604052808573ffffffffffffffffffffffffffffffffffffffff168152602001868152602001600081526020018281525060b360008201518160000160006101000a81548173ffffffffffffffffffffffffffffffffffffffff021916908373ffffffffffffffffffffffffffffffffffffffff1602179055506020820151816001019080519060200190611bc9929190612cc4565b5060408201518160020155606082015181600301559050508360af60008673ffffffffffffffffffffffffffffffffffffffff1673ffffffffffffffffffffffffffffffffffffffff16815260200190815260200160002060000160006101000a81548173ffffffffffffffffffffffffffffffffffffffff021916908373ffffffffffffffffffffffffffffffffffffffff1602179055508460af60008673ffffffffffffffffffffffffffffffffffffffff1673ffffffffffffffffffffffffffffffffffffffff1681526020019081526020016000206001019080519060200190611cb8929190612cc4565b50600060af60008673ffffffffffffffffffffffffffffffffffffffff1673ffffffffffffffffffffffffffffffffffffffff168152602001908152602001600020600201819055508060af60008673ffffffffffffffffffffffffffffffffffffffff1673ffffffffffffffffffffffffffffffffffffffff1681526020019081526020016000206003018190555060bd60b390806001815401808255809150506001900390600052602060002090600402016000909190919091506000820160009054906101000a900473ffffffffffffffffffffffffffffffffffffffff168160000160006101000a81548173ffffffffffffffffffffffffffffffffffffffff021916908373ffffffffffffffffffffffffffffffffffffffff1602179055506001820181600101908054611df090613a51565b611dfb929190612d4a565b506002820154816002015560038201548160030155505084849250925050611e21565b505b5b9250929050565b60af6020528060005260406000206000915090508060000160009054906101000a900473ffffffffffffffffffffffffffffffffffffffff1690806001018054611e7190613a51565b80601f0160208091040260200160405190810160405280929190818152602001828054611e9d90613a51565b8015611eea5780601f10611ebf57610100808354040283529160200191611eea565b820191906000526020600020905b815481529060010190602001808311611ecd57829003601f168201915b5050505050908060020154908060030154905084565b60ae6020528060005260406000206000915090508060000154908060010154905082565b60bc8181548110611f3457600080fd5b90600052602060002090600202016000915090508060000154908060010154905082565b6000609860008473ffffffffffffffffffffffffffffffffffffffff1673ffffffffffffffffffffffffffffffffffffffff16815260200190815260200160002060008373ffffffffffffffffffffffffffffffffffffffff1673ffffffffffffffffffffffffffffffffffffffff16815260200190815260200160002054905092915050565b600060a060009054906101000a900460ff161561202857600160a060006101000a81548160ff02191690831515021790555060a060009054906101000a900460ff169050612056565b600060a060006101000a81548160ff02191690831515021790555060a060009054906101000a900460ff1690505b90565b612061612925565b600073ffffffffffffffffffffffffffffffffffffffff168173ffffffffffffffffffffffffffffffffffffffff1614156120d1576040517f08c379a00000000000000000000000000000000000000000000000000000000081526004016120c890613619565b60405180910390fd5b6120da816129a3565b50565b60008060a7819055508360a781905550600115156120f96121eb565b151514156121e357600060a6819055508160a681905550600060a9600086815260200190815260200160002060008573ffffffffffffffffffffffffffffffffffffffff1673ffffffffffffffffffffffffffffffffffffffff16815260200190815260200160002054905060a65481116121a9576040517f08c379a00000000000000000000000000000000000000000000000000000000081526004016121a0906136d9565b60405180910390fd5b6121d7609c60009054906101000a900473ffffffffffffffffffffffffffffffffffffffff1660a654611772565b5060a6549150506121e4565b5b9392505050565b600060a060039054906101000a900460ff161561222257600160a060036101000a81548160ff02191690831515021790555061223e565b600060a060036101000a81548160ff0219169083151502179055505b60a060039054906101000a900460ff16905090565b600060a060019054906101000a900460ff161561229c57600160a060016101000a81548160ff02191690831515021790555060a060019054906101000a900460ff1690506122ca565b600060a060016101000a81548160ff02191690831515021790555060a060019054906101000a900460ff1690505b90565b600033905090565b600073ffffffffffffffffffffffffffffffffffffffff168373ffffffffffffffffffffffffffffffffffffffff161415612345576040517f08c379a000000000000000000000000000000000000000000000000000000000815260040161233c90613759565b60405180910390fd5b600073ffffffffffffffffffffffffffffffffffffffff168273ffffffffffffffffffffffffffffffffffffffff1614156123b5576040517f08c379a00000000000000000000000000000000000000000000000000000000081526004016123ac90613639565b60405180910390fd5b80606660008573ffffffffffffffffffffffffffffffffffffffff1673ffffffffffffffffffffffffffffffffffffffff16815260200190815260200160002060008473ffffffffffffffffffffffffffffffffffffffff1673ffffffffffffffffffffffffffffffffffffffff168152602001908152602001600020819055508173ffffffffffffffffffffffffffffffffffffffff168373ffffffffffffffffffffffffffffffffffffffff167f8c5be1e5ebec7d5bd14f71427d1e84f3dd0314c0f7b2291e5b200ac8c7c3b9258360405161249391906137f9565b60405180910390a3505050565b600060019054906101000a900460ff166124ef576040517f08c379a00000000000000000000000000000000000000000000000000000000081526004016124e690613779565b60405180910390fd5b6124f98282612c39565b5050565b600073ffffffffffffffffffffffffffffffffffffffff168373ffffffffffffffffffffffffffffffffffffffff16141561256d576040517f08c379a000000000000000000000000000000000000000000000000000000000815260040161256490613719565b60405180910390fd5b600073ffffffffffffffffffffffffffffffffffffffff168273ffffffffffffffffffffffffffffffffffffffff1614156125dd576040517f08c379a00000000000000000000000000000000000000000000000000000000081526004016125d4906135b9565b60405180910390fd5b6125e8838383612cba565b6000606560008573ffffffffffffffffffffffffffffffffffffffff1673ffffffffffffffffffffffffffffffffffffffff1681526020019081526020016000205490508181101561266f576040517f08c379a000000000000000000000000000000000000000000000000000000000815260040161266690613679565b60405180910390fd5b818103606560008673ffffffffffffffffffffffffffffffffffffffff1673ffffffffffffffffffffffffffffffffffffffff1681526020019081526020016000208190555081606560008573ffffffffffffffffffffffffffffffffffffffff1673ffffffffffffffffffffffffffffffffffffffff168152602001908152602001600020600082825401925050819055508273ffffffffffffffffffffffffffffffffffffffff168473ffffffffffffffffffffffffffffffffffffffff167fddf252ad1be2c89b69c2b068fc378daa952ba7f163c4a11628f55a4df523b3ef8460405161275f91906137f9565b60405180910390a3612772848484612cbf565b50505050565b60008383111582906127c0576040517f08c379a00000000000000000000000000000000000000000000000000000000081526004016127b79190613567565b60405180910390fd5b5082840390509392505050565b600073ffffffffffffffffffffffffffffffffffffffff168273ffffffffffffffffffffffffffffffffffffffff16141561283d576040517f08c379a0000000000000000000000000000000000000000000000000000000008152600401612834906137d9565b60405180910390fd5b61284960008383612cba565b806067600082825461285b9190613952565b9250508190555080606560008473ffffffffffffffffffffffffffffffffffffffff1673ffffffffffffffffffffffffffffffffffffffff168152602001908152602001600020600082825401925050819055508173ffffffffffffffffffffffffffffffffffffffff16600073ffffffffffffffffffffffffffffffffffffffff167fddf252ad1be2c89b69c2b068fc378daa952ba7f163c4a11628f55a4df523b3ef8360405161290d91906137f9565b60405180910390a361292160008383612cbf565b5050565b61292d6122cd565b73ffffffffffffffffffffffffffffffffffffffff1661294b6113c0565b73ffffffffffffffffffffffffffffffffffffffff16146129a1576040517f08c379a0000000000000000000000000000000000000000000000000000000008152600401612998906136b9565b60405180910390fd5b565b6000603360009054906101000a900473ffffffffffffffffffffffffffffffffffffffff16905081603360006101000a81548173ffffffffffffffffffffffffffffffffffffffff021916908373ffffffffffffffffffffffffffffffffffffffff1602179055508173ffffffffffffffffffffffffffffffffffffffff168173ffffffffffffffffffffffffffffffffffffffff167f8be0079c531659141344cd1fd0a4f28419497f9722a3daafe3b4186f6b6457e060405160405180910390a35050565b600073ffffffffffffffffffffffffffffffffffffffff168273ffffffffffffffffffffffffffffffffffffffff161415612ad9576040517f08c379a0000000000000000000000000000000000000000000000000000000008152600401612ad0906136f9565b60405180910390fd5b612ae582600083612cba565b6000606560008473ffffffffffffffffffffffffffffffffffffffff1673ffffffffffffffffffffffffffffffffffffffff16815260200190815260200160002054905081811015612b6c576040517f08c379a0000000000000000000000000000000000000000000000000000000008152600401612b63906135d9565b60405180910390fd5b818103606560008573ffffffffffffffffffffffffffffffffffffffff1673ffffffffffffffffffffffffffffffffffffffff1681526020019081526020016000208190555081606760008282540392505081905550600073ffffffffffffffffffffffffffffffffffffffff168373ffffffffffffffffffffffffffffffffffffffff167fddf252ad1be2c89b69c2b068fc378daa952ba7f163c4a11628f55a4df523b3ef84604051612c2091906137f9565b60405180910390a3612c3483600084612cbf565b505050565b600060019054906101000a900460ff16612c88576040517f08c379a0000000000000000000000000000000000000000000000000000000008152600401612c7f90613779565b60405180910390fd5b8160689080519060200190612c9e929190612cc4565b508060699080519060200190612cb5929190612cc4565b505050565b505050565b505050565b828054612cd090613a51565b90600052602060002090601f016020900481019282612cf25760008555612d39565b82601f10612d0b57805160ff1916838001178555612d39565b82800160010185558215612d39579182015b82811115612d38578251825591602001919060010190612d1d565b5b509050612d469190612dd7565b5090565b828054612d5690613a51565b90600052602060002090601f016020900481019282612d785760008555612dc6565b82601f10612d895780548555612dc6565b82800160010185558215612dc657600052602060002091601f016020900482015b82811115612dc5578254825591600101919060010190612daa565b5b509050612dd39190612dd7565b5090565b5b80821115612df0576000816000905550600101612dd8565b5090565b6000612e07612e02846138de565b6138b9565b905082815260208101848484011115612e1f57600080fd5b612e2a848285613a0f565b509392505050565b600081359050612e4181614048565b92915050565b600081359050612e568161405f565b92915050565b600082601f830112612e6d57600080fd5b8135612e7d848260208601612df4565b91505092915050565b600081359050612e9581614076565b92915050565b600060208284031215612ead57600080fd5b6000612ebb84828501612e32565b91505092915050565b600060208284031215612ed657600080fd5b6000612ee484828501612e47565b91505092915050565b60008060408385031215612f0057600080fd5b6000612f0e85828601612e47565b9250506020612f1f85828601612e86565b9150509250929050565b60008060408385031215612f3c57600080fd5b6000612f4a85828601612e32565b9250506020612f5b85828601612e32565b9150509250929050565b600080600060608486031215612f7a57600080fd5b6000612f8886828701612e32565b9350506020612f9986828701612e32565b9250506040612faa86828701612e86565b9150509250925092565b60008060408385031215612fc757600080fd5b6000612fd585828601612e32565b9250506020612fe685828601612e86565b9150509250929050565b6000806040838503121561300357600080fd5b600083013567ffffffffffffffff81111561301d57600080fd5b61302985828601612e5c565b925050602061303a85828601612e47565b9150509250929050565b60006020828403121561305657600080fd5b600061306484828501612e86565b91505092915050565b6000806040838503121561308057600080fd5b600061308e85828601612e86565b925050602061309f85828601612e32565b9150509250929050565b6000806000606084860312156130be57600080fd5b60006130cc86828701612e86565b93505060206130dd86828701612e47565b92505060406130ee86828701612e86565b9150509250925092565b613101816139ba565b82525050565b613110816139a8565b82525050565b61311f816139cc565b82525050565b60006131308261390f565b61313a8185613925565b935061314a818560208601613a1e565b61315381613b8a565b840191505092915050565b60006131698261391a565b6131738185613941565b9350613183818560208601613a1e565b61318c81613b8a565b840191505092915050565b60006131a4602383613941565b91506131af82613b9b565b604082019050919050565b60006131c7602283613941565b91506131d282613bea565b604082019050919050565b60006131ea601d83613941565b91506131f582613c39565b602082019050919050565b600061320d602683613941565b915061321882613c62565b604082019050919050565b6000613230602283613941565b915061323b82613cb1565b604082019050919050565b6000613253601383613941565b915061325e82613d00565b602082019050919050565b6000613276602683613941565b915061328182613d29565b604082019050919050565b6000613299601a83613941565b91506132a482613d78565b602082019050919050565b60006132bc602083613941565b91506132c782613da1565b602082019050919050565b60006132df604d83613941565b91506132ea82613dca565b606082019050919050565b6000613302602183613941565b915061330d82613e3f565b604082019050919050565b6000613325602583613941565b915061333082613e8e565b604082019050919050565b6000613348601783613941565b915061335382613edd565b602082019050919050565b600061336b600083613936565b915061337682613f06565b600082019050919050565b600061338e602483613941565b915061339982613f09565b604082019050919050565b60006133b1602b83613941565b91506133bc82613f58565b604082019050919050565b60006133d4601b83613941565b91506133df82613fa7565b602082019050919050565b60006133f7602583613941565b915061340282613fd0565b604082019050919050565b600061341a601f83613941565b91506134258261401f565b602082019050919050565b613439816139f8565b82525050565b61344881613a02565b82525050565b60006134598261335e565b9150819050919050565b60006020820190506134786000830184613107565b92915050565b600060808201905061349360008301876130f8565b81810360208301526134a5818661315e565b90506134b46040830185613430565b6134c16060830184613430565b95945050505050565b60006040820190506134df60008301856130f8565b6134ec6020830184613430565b9392505050565b60006040820190506135086000830185613107565b6135156020830184613430565b9392505050565b60006020820190506135316000830184613116565b92915050565b600060408201905061354c6000830185613116565b818103602083015261355e8184613125565b90509392505050565b60006020820190508181036000830152613581818461315e565b905092915050565b600060408201905081810360008301526135a3818561315e565b90506135b26020830184613107565b9392505050565b600060208201905081810360008301526135d281613197565b9050919050565b600060208201905081810360008301526135f2816131ba565b9050919050565b60006020820190508181036000830152613612816131dd565b9050919050565b6000602082019050818103600083015261363281613200565b9050919050565b6000602082019050818103600083015261365281613223565b9050919050565b6000602082019050818103600083015261367281613246565b9050919050565b6000602082019050818103600083015261369281613269565b9050919050565b600060208201905081810360008301526136b28161328c565b9050919050565b600060208201905081810360008301526136d2816132af565b9050919050565b600060208201905081810360008301526136f2816132d2565b9050919050565b60006020820190508181036000830152613712816132f5565b9050919050565b6000602082019050818103600083015261373281613318565b9050919050565b600060208201905081810360008301526137528161333b565b9050919050565b6000602082019050818103600083015261377281613381565b9050919050565b60006020820190508181036000830152613792816133a4565b9050919050565b600060208201905081810360008301526137b2816133c7565b9050919050565b600060208201905081810360008301526137d2816133ea565b9050919050565b600060208201905081810360008301526137f28161340d565b9050919050565b600060208201905061380e6000830184613430565b92915050565b600060c0820190506138296000830189613430565b61383660208301886130f8565b6138436040830187613116565b6138506060830186613430565b61385d6080830185613430565b61386a60a0830184613430565b979650505050505050565b600060408201905061388a6000830185613430565b6138976020830184613430565b9392505050565b60006020820190506138b3600083018461343f565b92915050565b60006138c36138d4565b90506138cf8282613a83565b919050565b6000604051905090565b600067ffffffffffffffff8211156138f9576138f8613b5b565b5b61390282613b8a565b9050602081019050919050565b600081519050919050565b600081519050919050565b600082825260208201905092915050565b600081905092915050565b600082825260208201905092915050565b600061395d826139f8565b9150613968836139f8565b9250827fffffffffffffffffffffffffffffffffffffffffffffffffffffffffffffffff0382111561399d5761399c613afd565b5b828201905092915050565b60006139b3826139d8565b9050919050565b60006139c5826139d8565b9050919050565b60008115159050919050565b600073ffffffffffffffffffffffffffffffffffffffff82169050919050565b6000819050919050565b600060ff82169050919050565b82818337600083830152505050565b60005b83811015613a3c578082015181840152602081019050613a21565b83811115613a4b576000848401525b50505050565b60006002820490506001821680613a6957607f821691505b60208210811415613a7d57613a7c613b2c565b5b50919050565b613a8c82613b8a565b810181811067ffffffffffffffff82111715613aab57613aaa613b5b565b5b80604052505050565b6000613abf826139f8565b91507fffffffffffffffffffffffffffffffffffffffffffffffffffffffffffffffff821415613af257613af1613afd565b5b600182019050919050565b7f4e487b7100000000000000000000000000000000000000000000000000000000600052601160045260246000fd5b7f4e487b7100000000000000000000000000000000000000000000000000000000600052602260045260246000fd5b7f4e487b7100000000000000000000000000000000000000000000000000000000600052604160045260246000fd5b6000601f19601f8301169050919050565b7f45524332303a207472616e7366657220746f20746865207a65726f206164647260008201527f6573730000000000000000000000000000000000000000000000000000000000602082015250565b7f45524332303a206275726e20616d6f756e7420657863656564732062616c616e60008201527f6365000000000000000000000000000000000000000000000000000000000000602082015250565b7f436865636b2074686520616d6f756e742073656e742061732077656c6c000000600082015250565b7f4f776e61626c653a206e6577206f776e657220697320746865207a65726f206160008201527f6464726573730000000000000000000000000000000000000000000000000000602082015250565b7f45524332303a20617070726f766520746f20746865207a65726f20616464726560008201527f7373000000000000000000000000000000000000000000000000000000000000602082015250565b7f43616c6c6572206973206e6f74206f776e657200000000000000000000000000600082015250565b7f45524332303a207472616e7366657220616d6f756e742065786365656473206260008201527f616c616e63650000000000000000000000000000000000000000000000000000602082015250565b7f416d6f756e74206e6f7420656e6f75676820746f20706c617921000000000000600082015250565b7f4f776e61626c653a2063616c6c6572206973206e6f7420746865206f776e6572600082015250565b7f2054686520616d6f756e7420726571756573746564206973206e6f7420656e6f60008201527f75676820696e207468697320677269642c706c6561736520636865636b20696e60208201527f20616e6f74686572206772696400000000000000000000000000000000000000604082015250565b7f45524332303a206275726e2066726f6d20746865207a65726f2061646472657360008201527f7300000000000000000000000000000000000000000000000000000000000000602082015250565b7f45524332303a207472616e736665722066726f6d20746865207a65726f20616460008201527f6472657373000000000000000000000000000000000000000000000000000000602082015250565b7f55736572206e6f7420666f75756e6420696e2067726964000000000000000000600082015250565b50565b7f45524332303a20617070726f76652066726f6d20746865207a65726f2061646460008201527f7265737300000000000000000000000000000000000000000000000000000000602082015250565b7f496e697469616c697a61626c653a20636f6e7472616374206973206e6f74206960008201527f6e697469616c697a696e67000000000000000000000000000000000000000000602082015250565b7f66696c65206772696420696420646f6573206e6f742065786973740000000000600082015250565b7f45524332303a2064656372656173656420616c6c6f77616e63652062656c6f7760008201527f207a65726f000000000000000000000000000000000000000000000000000000602082015250565b7f45524332303a206d696e7420746f20746865207a65726f206164647265737300600082015250565b614051816139a8565b811461405c57600080fd5b50565b614068816139ba565b811461407357600080fd5b50565b61407f816139f8565b811461408a57600080fd5b5056fe45524332303a207472616e7366657220616d6f756e74206578636565647320616c6c6f77616e6365a264697066735822122089713a6b91eca58ac9811e75b2330dd2a798922d5e5af3f525b8252d0c2a55a264736f6c63430008020033",
  "linkReferences": {},
  "deployedLinkReferences": {}
}