{
  "_format": "hh-sol-artifact-1",
  "contractName": "FileToken",
  "sourceName": "contracts/FileToken.sol",
  "abi": [
    {
      "anonymous": false,
      "inputs": [
        {
          "indexed": true,
          "internalType": "address",
          "name": "owner",
          "type": "address"
        },
        {
          "indexed": true,
          "internalType": "address",
          "name": "spender",
          "type": "address"
        },
        {
          "indexed": false,
          "internalType": "uint256",
          "name": "value",
          "type": "uint256"
        }
      ],
      "name": "Approval",
      "type": "event"
    },
    {
      "anonymous": false,
      "inputs": [
        {
          "indexed": false,
          "internalType": "address",
          "name": "_fileownerset",
          "type": "address"
        }
      ],
      "name": "FileToken",
      "type": "event"
    },
    {
      "anonymous": false,
      "inputs": [
        {
          "indexed": false,
          "internalType": "uint8",
          "name": "version",
          "type": "uint8"
        }
      ],
      "name": "Initialized",
      "type": "event"
    },
    {
      "anonymous": false,
      "inputs": [
        {
          "indexed": true,
          "internalType": "address",
          "name": "previousOwner",
          "type": "address"
        },
        {
          "indexed": true,
          "internalType": "address",
          "name": "newOwner",
          "type": "address"
        }
      ],
      "name": "OwnershipTransferred",
      "type": "event"
    },
    {
      "anonymous": false,
      "inputs": [
        {
          "indexed": true,
          "internalType": "address",
          "name": "from",
          "type": "address"
        },
        {
          "indexed": true,
          "internalType": "address",
          "name": "to",
          "type": "address"
        },
        {
          "indexed": false,
          "internalType": "uint256",
          "name": "value",
          "type": "uint256"
        }
      ],
      "name": "Transfer",
      "type": "event"
    },
    {
      "anonymous": false,
      "inputs": [
        {
          "indexed": false,
          "internalType": "address",
          "name": "recipient",
          "type": "address"
        },
        {
          "indexed": false,
          "internalType": "uint256",
          "name": "amount",
          "type": "uint256"
        }
      ],
      "name": "mintme",
      "type": "event"
    },
    {
      "anonymous": false,
      "inputs": [
        {
          "indexed": false,
          "internalType": "address",
          "name": "recipient",
          "type": "address"
        },
        {
          "indexed": false,
          "internalType": "uint256",
          "name": "amount",
          "type": "uint256"
        }
      ],
      "name": "noburnme",
      "type": "event"
    },
    {
      "inputs": [
        {
          "internalType": "address",
          "name": "owner",
          "type": "address"
        },
        {
          "internalType": "address",
          "name": "spender",
          "type": "address"
        }
      ],
      "name": "allowance",
      "outputs": [
        {
          "internalType": "uint256",
          "name": "",
          "type": "uint256"
        }
      ],
      "stateMutability": "view",
      "type": "function"
    },
    {
      "inputs": [
        {
          "internalType": "address",
          "name": "spender",
          "type": "address"
        },
        {
          "internalType": "uint256",
          "name": "amount",
          "type": "uint256"
        }
      ],
      "name": "approve",
      "outputs": [
        {
          "internalType": "bool",
          "name": "",
          "type": "bool"
        }
      ],
      "stateMutability": "nonpayable",
      "type": "function"
    },
    {
      "inputs": [
        {
          "internalType": "address",
          "name": "account",
          "type": "address"
        }
      ],
      "name": "balanceOf",
      "outputs": [
        {
          "internalType": "uint256",
          "name": "",
          "type": "uint256"
        }
      ],
      "stateMutability": "view",
      "type": "function"
    },
    {
      "inputs": [
        {
          "internalType": "address",
          "name": "recipient",
          "type": "address"
        },
        {
          "internalType": "uint256",
          "name": "amount",
          "type": "uint256"
        }
      ],
      "name": "burn",
      "outputs": [],
      "stateMutability": "nonpayable",
      "type": "function"
    },
    {
      "inputs": [],
      "name": "decimals",
      "outputs": [
        {
          "internalType": "uint8",
          "name": "",
          "type": "uint8"
        }
      ],
      "stateMutability": "view",
      "type": "function"
    },
    {
      "inputs": [
        {
          "internalType": "address",
          "name": "spender",
          "type": "address"
        },
        {
          "internalType": "uint256",
          "name": "subtractedValue",
          "type": "uint256"
        }
      ],
      "name": "decreaseAllowance",
      "outputs": [
        {
          "internalType": "bool",
          "name": "",
          "type": "bool"
        }
      ],
      "stateMutability": "nonpayable",
      "type": "function"
    },
    {
      "inputs": [
        {
          "internalType": "address",
          "name": "spender",
          "type": "address"
        },
        {
          "internalType": "uint256",
          "name": "addedValue",
          "type": "uint256"
        }
      ],
      "name": "increaseAllowance",
      "outputs": [
        {
          "internalType": "bool",
          "name": "",
          "type": "bool"
        }
      ],
      "stateMutability": "nonpayable",
      "type": "function"
    },
    {
      "inputs": [
        {
          "internalType": "address",
          "name": "__owner",
          "type": "address"
        }
      ],
      "name": "initialize",
      "outputs": [],
      "stateMutability": "nonpayable",
      "type": "function"
    },
    {
      "inputs": [
        {
          "internalType": "address",
          "name": "recipient",
          "type": "address"
        },
        {
          "internalType": "uint256",
          "name": "amount",
          "type": "uint256"
        }
      ],
      "name": "mint",
      "outputs": [],
      "stateMutability": "nonpayable",
      "type": "function"
    },
    {
      "inputs": [],
      "name": "name",
      "outputs": [
        {
          "internalType": "string",
          "name": "",
          "type": "string"
        }
      ],
      "stateMutability": "view",
      "type": "function"
    },
    {
      "inputs": [],
      "name": "owner",
      "outputs": [
        {
          "internalType": "address",
          "name": "",
          "type": "address"
        }
      ],
      "stateMutability": "view",
      "type": "function"
    },
    {
      "inputs": [],
      "name": "renounceOwnership",
      "outputs": [],
      "stateMutability": "nonpayable",
      "type": "function"
    },
    {
      "inputs": [],
      "name": "symbol",
      "outputs": [
        {
          "internalType": "string",
          "name": "",
          "type": "string"
        }
      ],
      "stateMutability": "view",
      "type": "function"
    },
    {
      "inputs": [],
      "name": "totalSupply",
      "outputs": [
        {
          "internalType": "uint256",
          "name": "",
          "type": "uint256"
        }
      ],
      "stateMutability": "view",
      "type": "function"
    },
    {
      "inputs": [
        {
          "internalType": "address",
          "name": "to",
          "type": "address"
        },
        {
          "internalType": "uint256",
          "name": "amount",
          "type": "uint256"
        }
      ],
      "name": "transfer",
      "outputs": [
        {
          "internalType": "bool",
          "name": "",
          "type": "bool"
        }
      ],
      "stateMutability": "nonpayable",
      "type": "function"
    },
    {
      "inputs": [
        {
          "internalType": "address",
          "name": "from",
          "type": "address"
        },
        {
          "internalType": "address",
          "name": "to",
          "type": "address"
        },
        {
          "internalType": "uint256",
          "name": "amount",
          "type": "uint256"
        }
      ],
      "name": "transferFrom",
      "outputs": [
        {
          "internalType": "bool",
          "name": "",
          "type": "bool"
        }
      ],
      "stateMutability": "nonpayable",
      "type": "function"
    },
    {
      "inputs": [
        {
          "internalType": "address",
          "name": "newOwner",
          "type": "address"
        }
      ],
      "name": "transferOwnership",
      "outputs": [],
      "stateMutability": "nonpayable",
      "type": "function"
    }
  ],
  "bytecode": "0x608060405234801561001057600080fd5b50612071806100206000396000f3fe608060405234801561001057600080fd5b506004361061010b5760003560e01c8063715018a6116100a2578063a457c2d711610071578063a457c2d7146102a8578063a9059cbb146102d8578063c4d66de814610308578063dd62ed3e14610324578063f2fde38b146103545761010b565b8063715018a6146102465780638da5cb5b1461025057806395d89b411461026e5780639dc29fac1461028c5761010b565b8063313ce567116100de578063313ce567146101ac57806339509351146101ca57806340c10f19146101fa57806370a08231146102165761010b565b806306fdde0314610110578063095ea7b31461012e57806318160ddd1461015e57806323b872dd1461017c575b600080fd5b610118610370565b60405161012591906118e9565b60405180910390f35b61014860048036038101906101439190611612565b610402565b60405161015591906118ce565b60405180910390f35b610166610425565b6040516101739190611aab565b60405180910390f35b610196600480360381019061019191906115c3565b61042f565b6040516101a391906118ce565b60405180910390f35b6101b461045e565b6040516101c19190611ac6565b60405180910390f35b6101e460048036038101906101df9190611612565b610467565b6040516101f191906118ce565b60405180910390f35b610214600480360381019061020f9190611612565b61049e565b005b610230600480360381019061022b919061155e565b6104e5565b60405161023d9190611aab565b60405180910390f35b61024e61052e565b005b610258610542565b604051610265919061188a565b60405180910390f35b61027661056c565b60405161028391906118e9565b60405180910390f35b6102a660048036038101906102a19190611612565b6105fe565b005b6102c260048036038101906102bd9190611612565b610645565b6040516102cf91906118ce565b60405180910390f35b6102f260048036038101906102ed9190611612565b6106bc565b6040516102ff91906118ce565b60405180910390f35b610322600480360381019061031d919061155e565b6106df565b005b61033e60048036038101906103399190611587565b610958565b60405161034b9190611aab565b60405180910390f35b61036e6004803603810190610369919061155e565b6109df565b005b60606068805461037f90611bdb565b80601f01602080910402602001604051908101604052809291908181526020018280546103ab90611bdb565b80156103f85780601f106103cd576101008083540402835291602001916103f8565b820191906000526020600020905b8154815290600101906020018083116103db57829003601f168201915b5050505050905090565b60008061040d610a63565b905061041a818585610a6b565b600191505092915050565b6000606754905090565b60008061043a610a63565b9050610447858285610c36565b610452858585610cc2565b60019150509392505050565b60006012905090565b600080610472610a63565b90506104938185856104848589610958565b61048e9190611afd565b610a6b565b600191505092915050565b7fdad7c9b6b5a68659e2e0dc68b11470af21befc3fdd1403276771e0aa4ad2e69a82826040516104cf9291906118a5565b60405180910390a16104e18282610f3d565b5050565b6000606560008373ffffffffffffffffffffffffffffffffffffffff1673ffffffffffffffffffffffffffffffffffffffff168152602001908152602001600020549050919050565b610536611095565b6105406000611113565b565b6000603360009054906101000a900473ffffffffffffffffffffffffffffffffffffffff16905090565b60606069805461057b90611bdb565b80601f01602080910402602001604051908101604052809291908181526020018280546105a790611bdb565b80156105f45780601f106105c9576101008083540402835291602001916105f4565b820191906000526020600020905b8154815290600101906020018083116105d757829003601f168201915b5050505050905090565b7f7e7103adb6ec708ef985756bb42f33f33a9f4a0872d70a509bd28156e30556fa828260405161062f9291906118a5565b60405180910390a161064182826111d9565b5050565b600080610650610a63565b9050600061065e8286610958565b9050838110156106a3576040517f08c379a000000000000000000000000000000000000000000000000000000000815260040161069a90611a6b565b60405180910390fd5b6106b08286868403610a6b565b60019250505092915050565b6000806106c7610a63565b90506106d4818585610cc2565b600191505092915050565b6106e7610542565b609a60006101000a81548173ffffffffffffffffffffffffffffffffffffffff021916908373ffffffffffffffffffffffffffffffffffffffff16021790555080609a60006101000a81548173ffffffffffffffffffffffffffffffffffffffff021916908373ffffffffffffffffffffffffffffffffffffffff1602179055506040518060400160405280600981526020017f46696c65546f6b656e0000000000000000000000000000000000000000000000815250609890805190602001906107b3929190611491565b506040518060400160405280600381526020017f464c540000000000000000000000000000000000000000000000000000000000815250609990805190602001906107ff929190611491565b5061091e6098805461081090611bdb565b80601f016020809104026020016040519081016040528092919081815260200182805461083c90611bdb565b80156108895780601f1061085e57610100808354040283529160200191610889565b820191906000526020600020905b81548152906001019060200180831161086c57829003601f168201915b50505050506099805461089b90611bdb565b80601f01602080910402602001604051908101604052809291908181526020018280546108c790611bdb565b80156109145780601f106108e957610100808354040283529160200191610914565b820191906000526020600020905b8154815290600101906020018083116108f757829003601f168201915b50505050506113a9565b7fafd5fbf50d394df650b25f42e574b5d3e262c540bd616f2fcde8429b3e3754df8160405161094d919061188a565b60405180910390a150565b6000606660008473ffffffffffffffffffffffffffffffffffffffff1673ffffffffffffffffffffffffffffffffffffffff16815260200190815260200160002060008373ffffffffffffffffffffffffffffffffffffffff1673ffffffffffffffffffffffffffffffffffffffff16815260200190815260200160002054905092915050565b6109e7611095565b600073ffffffffffffffffffffffffffffffffffffffff168173ffffffffffffffffffffffffffffffffffffffff161415610a57576040517f08c379a0000000000000000000000000000000000000000000000000000000008152600401610a4e9061194b565b60405180910390fd5b610a6081611113565b50565b600033905090565b600073ffffffffffffffffffffffffffffffffffffffff168373ffffffffffffffffffffffffffffffffffffffff161415610adb576040517f08c379a0000000000000000000000000000000000000000000000000000000008152600401610ad290611a2b565b60405180910390fd5b600073ffffffffffffffffffffffffffffffffffffffff168273ffffffffffffffffffffffffffffffffffffffff161415610b4b576040517f08c379a0000000000000000000000000000000000000000000000000000000008152600401610b429061196b565b60405180910390fd5b80606660008573ffffffffffffffffffffffffffffffffffffffff1673ffffffffffffffffffffffffffffffffffffffff16815260200190815260200160002060008473ffffffffffffffffffffffffffffffffffffffff1673ffffffffffffffffffffffffffffffffffffffff168152602001908152602001600020819055508173ffffffffffffffffffffffffffffffffffffffff168373ffffffffffffffffffffffffffffffffffffffff167f8c5be1e5ebec7d5bd14f71427d1e84f3dd0314c0f7b2291e5b200ac8c7c3b92583604051610c299190611aab565b60405180910390a3505050565b6000610c428484610958565b90507fffffffffffffffffffffffffffffffffffffffffffffffffffffffffffffffff8114610cbc5781811015610cae576040517f08c379a0000000000000000000000000000000000000000000000000000000008152600401610ca59061198b565b60405180910390fd5b610cbb8484848403610a6b565b5b50505050565b600073ffffffffffffffffffffffffffffffffffffffff168373ffffffffffffffffffffffffffffffffffffffff161415610d32576040517f08c379a0000000000000000000000000000000000000000000000000000000008152600401610d2990611a0b565b60405180910390fd5b600073ffffffffffffffffffffffffffffffffffffffff168273ffffffffffffffffffffffffffffffffffffffff161415610da2576040517f08c379a0000000000000000000000000000000000000000000000000000000008152600401610d999061190b565b60405180910390fd5b610dad838383611406565b6000606560008573ffffffffffffffffffffffffffffffffffffffff1673ffffffffffffffffffffffffffffffffffffffff16815260200190815260200160002054905081811015610e34576040517f08c379a0000000000000000000000000000000000000000000000000000000008152600401610e2b906119ab565b60405180910390fd5b818103606560008673ffffffffffffffffffffffffffffffffffffffff1673ffffffffffffffffffffffffffffffffffffffff1681526020019081526020016000208190555081606560008573ffffffffffffffffffffffffffffffffffffffff1673ffffffffffffffffffffffffffffffffffffffff168152602001908152602001600020600082825401925050819055508273ffffffffffffffffffffffffffffffffffffffff168473ffffffffffffffffffffffffffffffffffffffff167fddf252ad1be2c89b69c2b068fc378daa952ba7f163c4a11628f55a4df523b3ef84604051610f249190611aab565b60405180910390a3610f3784848461140b565b50505050565b600073ffffffffffffffffffffffffffffffffffffffff168273ffffffffffffffffffffffffffffffffffffffff161415610fad576040517f08c379a0000000000000000000000000000000000000000000000000000000008152600401610fa490611a8b565b60405180910390fd5b610fb960008383611406565b8060676000828254610fcb9190611afd565b9250508190555080606560008473ffffffffffffffffffffffffffffffffffffffff1673ffffffffffffffffffffffffffffffffffffffff168152602001908152602001600020600082825401925050819055508173ffffffffffffffffffffffffffffffffffffffff16600073ffffffffffffffffffffffffffffffffffffffff167fddf252ad1be2c89b69c2b068fc378daa952ba7f163c4a11628f55a4df523b3ef8360405161107d9190611aab565b60405180910390a36110916000838361140b565b5050565b61109d610a63565b73ffffffffffffffffffffffffffffffffffffffff166110bb610542565b73ffffffffffffffffffffffffffffffffffffffff1614611111576040517f08c379a0000000000000000000000000000000000000000000000000000000008152600401611108906119cb565b60405180910390fd5b565b6000603360009054906101000a900473ffffffffffffffffffffffffffffffffffffffff16905081603360006101000a81548173ffffffffffffffffffffffffffffffffffffffff021916908373ffffffffffffffffffffffffffffffffffffffff1602179055508173ffffffffffffffffffffffffffffffffffffffff168173ffffffffffffffffffffffffffffffffffffffff167f8be0079c531659141344cd1fd0a4f28419497f9722a3daafe3b4186f6b6457e060405160405180910390a35050565b600073ffffffffffffffffffffffffffffffffffffffff168273ffffffffffffffffffffffffffffffffffffffff161415611249576040517f08c379a0000000000000000000000000000000000000000000000000000000008152600401611240906119eb565b60405180910390fd5b61125582600083611406565b6000606560008473ffffffffffffffffffffffffffffffffffffffff1673ffffffffffffffffffffffffffffffffffffffff168152602001908152602001600020549050818110156112dc576040517f08c379a00000000000000000000000000000000000000000000000000000000081526004016112d39061192b565b60405180910390fd5b818103606560008573ffffffffffffffffffffffffffffffffffffffff1673ffffffffffffffffffffffffffffffffffffffff1681526020019081526020016000208190555081606760008282540392505081905550600073ffffffffffffffffffffffffffffffffffffffff168373ffffffffffffffffffffffffffffffffffffffff167fddf252ad1be2c89b69c2b068fc378daa952ba7f163c4a11628f55a4df523b3ef846040516113909190611aab565b60405180910390a36113a48360008461140b565b505050565b600060019054906101000a900460ff166113f8576040517f08c379a00000000000000000000000000000000000000000000000000000000081526004016113ef90611a4b565b60405180910390fd5b6114028282611410565b5050565b505050565b505050565b600060019054906101000a900460ff1661145f576040517f08c379a000000000000000000000000000000000000000000000000000000000815260040161145690611a4b565b60405180910390fd5b8160689080519060200190611475929190611491565b50806069908051906020019061148c929190611491565b505050565b82805461149d90611bdb565b90600052602060002090601f0160209004810192826114bf5760008555611506565b82601f106114d857805160ff1916838001178555611506565b82800160010185558215611506579182015b828111156115055782518255916020019190600101906114ea565b5b5090506115139190611517565b5090565b5b80821115611530576000816000905550600101611518565b5090565b6000813590506115438161200d565b92915050565b60008135905061155881612024565b92915050565b60006020828403121561157057600080fd5b600061157e84828501611534565b91505092915050565b6000806040838503121561159a57600080fd5b60006115a885828601611534565b92505060206115b985828601611534565b9150509250929050565b6000806000606084860312156115d857600080fd5b60006115e686828701611534565b93505060206115f786828701611534565b925050604061160886828701611549565b9150509250925092565b6000806040838503121561162557600080fd5b600061163385828601611534565b925050602061164485828601611549565b9150509250929050565b61165781611b53565b82525050565b61166681611b65565b82525050565b600061167782611ae1565b6116818185611aec565b9350611691818560208601611ba8565b61169a81611c6b565b840191505092915050565b60006116b2602383611aec565b91506116bd82611c7c565b604082019050919050565b60006116d5602283611aec565b91506116e082611ccb565b604082019050919050565b60006116f8602683611aec565b915061170382611d1a565b604082019050919050565b600061171b602283611aec565b915061172682611d69565b604082019050919050565b600061173e601d83611aec565b915061174982611db8565b602082019050919050565b6000611761602683611aec565b915061176c82611de1565b604082019050919050565b6000611784602083611aec565b915061178f82611e30565b602082019050919050565b60006117a7602183611aec565b91506117b282611e59565b604082019050919050565b60006117ca602583611aec565b91506117d582611ea8565b604082019050919050565b60006117ed602483611aec565b91506117f882611ef7565b604082019050919050565b6000611810602b83611aec565b915061181b82611f46565b604082019050919050565b6000611833602583611aec565b915061183e82611f95565b604082019050919050565b6000611856601f83611aec565b915061186182611fe4565b602082019050919050565b61187581611b91565b82525050565b61188481611b9b565b82525050565b600060208201905061189f600083018461164e565b92915050565b60006040820190506118ba600083018561164e565b6118c7602083018461186c565b9392505050565b60006020820190506118e3600083018461165d565b92915050565b60006020820190508181036000830152611903818461166c565b905092915050565b60006020820190508181036000830152611924816116a5565b9050919050565b60006020820190508181036000830152611944816116c8565b9050919050565b60006020820190508181036000830152611964816116eb565b9050919050565b600060208201905081810360008301526119848161170e565b9050919050565b600060208201905081810360008301526119a481611731565b9050919050565b600060208201905081810360008301526119c481611754565b9050919050565b600060208201905081810360008301526119e481611777565b9050919050565b60006020820190508181036000830152611a048161179a565b9050919050565b60006020820190508181036000830152611a24816117bd565b9050919050565b60006020820190508181036000830152611a44816117e0565b9050919050565b60006020820190508181036000830152611a6481611803565b9050919050565b60006020820190508181036000830152611a8481611826565b9050919050565b60006020820190508181036000830152611aa481611849565b9050919050565b6000602082019050611ac0600083018461186c565b92915050565b6000602082019050611adb600083018461187b565b92915050565b600081519050919050565b600082825260208201905092915050565b6000611b0882611b91565b9150611b1383611b91565b9250827fffffffffffffffffffffffffffffffffffffffffffffffffffffffffffffffff03821115611b4857611b47611c0d565b5b828201905092915050565b6000611b5e82611b71565b9050919050565b60008115159050919050565b600073ffffffffffffffffffffffffffffffffffffffff82169050919050565b6000819050919050565b600060ff82169050919050565b60005b83811015611bc6578082015181840152602081019050611bab565b83811115611bd5576000848401525b50505050565b60006002820490506001821680611bf357607f821691505b60208210811415611c0757611c06611c3c565b5b50919050565b7f4e487b7100000000000000000000000000000000000000000000000000000000600052601160045260246000fd5b7f4e487b7100000000000000000000000000000000000000000000000000000000600052602260045260246000fd5b6000601f19601f8301169050919050565b7f45524332303a207472616e7366657220746f20746865207a65726f206164647260008201527f6573730000000000000000000000000000000000000000000000000000000000602082015250565b7f45524332303a206275726e20616d6f756e7420657863656564732062616c616e60008201527f6365000000000000000000000000000000000000000000000000000000000000602082015250565b7f4f776e61626c653a206e6577206f776e657220697320746865207a65726f206160008201527f6464726573730000000000000000000000000000000000000000000000000000602082015250565b7f45524332303a20617070726f766520746f20746865207a65726f20616464726560008201527f7373000000000000000000000000000000000000000000000000000000000000602082015250565b7f45524332303a20696e73756666696369656e7420616c6c6f77616e6365000000600082015250565b7f45524332303a207472616e7366657220616d6f756e742065786365656473206260008201527f616c616e63650000000000000000000000000000000000000000000000000000602082015250565b7f4f776e61626c653a2063616c6c6572206973206e6f7420746865206f776e6572600082015250565b7f45524332303a206275726e2066726f6d20746865207a65726f2061646472657360008201527f7300000000000000000000000000000000000000000000000000000000000000602082015250565b7f45524332303a207472616e736665722066726f6d20746865207a65726f20616460008201527f6472657373000000000000000000000000000000000000000000000000000000602082015250565b7f45524332303a20617070726f76652066726f6d20746865207a65726f2061646460008201527f7265737300000000000000000000000000000000000000000000000000000000602082015250565b7f496e697469616c697a61626c653a20636f6e7472616374206973206e6f74206960008201527f6e697469616c697a696e67000000000000000000000000000000000000000000602082015250565b7f45524332303a2064656372656173656420616c6c6f77616e63652062656c6f7760008201527f207a65726f000000000000000000000000000000000000000000000000000000602082015250565b7f45524332303a206d696e7420746f20746865207a65726f206164647265737300600082015250565b61201681611b53565b811461202157600080fd5b50565b61202d81611b91565b811461203857600080fd5b5056fea2646970667358221220c339cd52df81108d7714e625a989eedae88f07fc7e4dadb067f23ca73786800e64736f6c63430008020033",
  "linkReferences": {},
  "deployedLinkReferences": {}
}